{
  "abi": [
    {
      "inputs": [],
      "stateMutability": "nonpayable",
      "type": "constructor"
    },
    {
      "inputs": [],
      "name": "AlreadyWithdrawn",
      "type": "error"
    },
    {
      "inputs": [],
      "name": "AuctionBidTooLow",
      "type": "error"
    },
    {
      "inputs": [],
      "name": "AuctionInProgress",
      "type": "error"
    },
    {
      "inputs": [],
      "name": "AuctionMaxSupplyReached",
      "type": "error"
    },
    {
      "inputs": [],
      "name": "AuctionNotStarted",
      "type": "error"
    },
    {
      "inputs": [],
      "name": "BidsAlreadyRefunded",
      "type": "error"
    },
    {
      "inputs": [],
      "name": "FailedToRefundBids",
      "type": "error"
    },
    {
      "inputs": [],
      "name": "MaximumPerTransactionExceeded",
      "type": "error"
    },
    {
      "inputs": [],
      "name": "NoRefundRequired",
      "type": "error"
    },
    {
      "inputs": [],
      "name": "RefundsDisabled",
      "type": "error"
    },
    {
      "inputs": [],
      "name": "UnableToWithdraw",
      "type": "error"
    },
    {
      "anonymous": false,
      "inputs": [
        {
          "indexed": true,
          "internalType": "address",
          "name": "from",
          "type": "address"
        },
        {
          "indexed": false,
          "internalType": "uint256",
          "name": "amount",
          "type": "uint256"
        },
        {
          "indexed": false,
          "internalType": "uint256",
          "name": "price",
          "type": "uint256"
        }
      ],
      "name": "BidPlaced",
      "type": "event"
    },
    {
      "anonymous": false,
      "inputs": [
        {
          "indexed": true,
          "internalType": "address",
          "name": "from",
          "type": "address"
        },
        {
          "components": [
            {
              "internalType": "uint256",
              "name": "amount",
              "type": "uint256"
            },
            {
              "internalType": "uint256",
              "name": "price",
              "type": "uint256"
            }
          ],
          "indexed": false,
          "internalType": "struct DutchAuction.Bid[]",
          "name": "bids",
          "type": "tuple[]"
        },
        {
          "indexed": false,
          "internalType": "uint256",
          "name": "refundedAmount",
          "type": "uint256"
        }
      ],
      "name": "Refunded",
      "type": "event"
    },
    {
      "inputs": [
        {
          "internalType": "address",
          "name": "from",
          "type": "address"
        }
      ],
      "name": "_getBidsFromAddress",
      "outputs": [
        {
          "components": [
            {
              "internalType": "uint256",
              "name": "amount",
              "type": "uint256"
            },
            {
              "internalType": "uint256",
              "name": "price",
              "type": "uint256"
            }
          ],
          "internalType": "struct DutchAuction.Bid[]",
          "name": "",
          "type": "tuple[]"
        }
      ],
      "stateMutability": "view",
      "type": "function"
    },
    {
      "inputs": [],
      "name": "allowRefunds",
      "outputs": [
        {
          "internalType": "bool",
          "name": "",
          "type": "bool"
        }
      ],
      "stateMutability": "view",
      "type": "function"
    },
    {
      "inputs": [],
      "name": "auctionConfig",
      "outputs": [
        {
          "internalType": "uint256",
          "name": "startTime",
          "type": "uint256"
        },
        {
          "internalType": "uint256",
          "name": "startPrice",
          "type": "uint256"
        },
        {
          "internalType": "uint256",
          "name": "endPrice",
          "type": "uint256"
        },
        {
          "internalType": "uint256",
          "name": "duration",
          "type": "uint256"
        },
        {
          "internalType": "uint256",
          "name": "interval",
          "type": "uint256"
        },
        {
          "internalType": "uint256",
          "name": "mintable",
          "type": "uint256"
        },
        {
          "internalType": "uint256",
          "name": "maxPerTx",
          "type": "uint256"
        }
      ],
      "stateMutability": "view",
      "type": "function"
    },
    {
      "inputs": [
        {
          "internalType": "address",
          "name": "_address",
          "type": "address"
        }
      ],
      "name": "balanceOf",
      "outputs": [
        {
          "internalType": "uint256",
          "name": "",
          "type": "uint256"
        }
      ],
      "stateMutability": "view",
      "type": "function"
    },
    {
      "inputs": [
        {
          "internalType": "address",
          "name": "",
          "type": "address"
        },
        {
          "internalType": "uint256",
          "name": "",
          "type": "uint256"
        }
      ],
      "name": "bids",
      "outputs": [
        {
          "internalType": "uint256",
          "name": "amount",
          "type": "uint256"
        },
        {
          "internalType": "uint256",
          "name": "price",
          "type": "uint256"
        }
      ],
      "stateMutability": "view",
      "type": "function"
    },
    {
      "inputs": [
        {
          "internalType": "address",
          "name": "",
          "type": "address"
        }
      ],
      "name": "bidsRefunded",
      "outputs": [
        {
          "internalType": "bool",
          "name": "",
          "type": "bool"
        }
      ],
      "stateMutability": "view",
      "type": "function"
    },
    {
      "inputs": [],
      "name": "claimRefund",
      "outputs": [],
      "stateMutability": "nonpayable",
      "type": "function"
    },
    {
      "inputs": [],
      "name": "fundsWithdrawn",
      "outputs": [
        {
          "internalType": "bool",
          "name": "",
          "type": "bool"
        }
      ],
      "stateMutability": "view",
      "type": "function"
    },
    {
      "inputs": [],
      "name": "getCurrentPrice",
      "outputs": [
        {
          "internalType": "uint256",
          "name": "",
          "type": "uint256"
        }
      ],
      "stateMutability": "view",
      "type": "function"
    },
    {
      "inputs": [
        {
          "internalType": "uint256",
          "name": "amount",
          "type": "uint256"
        }
      ],
      "name": "makeBid",
      "outputs": [],
      "stateMutability": "payable",
      "type": "function"
    },
    {
      "inputs": [],
      "name": "totalMinted",
      "outputs": [
        {
          "internalType": "uint256",
          "name": "",
          "type": "uint256"
        }
      ],
      "stateMutability": "view",
      "type": "function"
    }
  ],
  "bytecode": {
    "object": "0x608060405234801561001057600080fd5b506040805160e081018252428082526706f05b59d3b200006020830181905267016345785d8a00009383018490526138406060840181905261070860808501819052600a60a08601819052600360c09096018690526001600081905560029590955592855560049590955560055560069390935560079290925560085580546001600160a01b03191630179055610a52806100ac6000396000f3fe60806040526004361061009c5760003560e01c8063ac307fcf11610064578063ac307fcf1461017b578063ad53c3ca1461019c578063b5545a3c146101cc578063bb406135146101e1578063c1a046c014610245578063eb91d37e1461027257600080fd5b806301495c1c146100a1578063175b2304146100db57806359c656df146100f057806370a0823114610121578063a2309ff814610165575b600080fd5b3480156100ad57600080fd5b506100c16100bc366004610892565b610287565b604080519283526020830191909152015b60405180910390f35b6100ee6100e93660046108bc565b6102c3565b005b3480156100fc57600080fd5b5060015461011190600160a01b900460ff1681565b60405190151581526020016100d2565b34801561012d57600080fd5b5061015761013c3660046108d5565b6001600160a01b03166000908152600d602052604090205490565b6040519081526020016100d2565b34801561017157600080fd5b5061015760095481565b34801561018757600080fd5b5060015461011190600160a81b900460ff1681565b3480156101a857600080fd5b506101116101b73660046108d5565b600c6020526000908152604090205460ff1681565b3480156101d857600080fd5b506100ee6102d0565b3480156101ed57600080fd5b506002546003546004546005546006546007546008546102109695949392919087565b604080519788526020880196909652948601939093526060850191909152608084015260a083015260c082015260e0016100d2565b34801561025157600080fd5b506102656102603660046108d5565b6104fc565b6040516100d2919061093d565b34801561027e57600080fd5b50610157610585565b600b60205281600052604060002081815481106102a357600080fd5b600091825260209091206002909102018054600190910154909250905082565b6102cd3382610642565b50565b600154600160a01b900460ff166102fa57604051636f9f51c760e01b815260040160405180910390fd5b336000908152600c602052604090205460ff161561032b576040516306ec227160e31b815260040160405180910390fd5b336000908152600b6020908152604080832080548251818502810185019093528083529192909190849084015b8282101561039e57838290600052602060002090600202016040518060400160405290816000820154815260200160018201548152505081526020019060010190610358565b5050505090506000805b82518110156104105760008382815181106103c5576103c5610950565b602002602001015190508060000151600a5482602001516103e6919061097c565b6103f09190610995565b6103fa90846109ac565b9250508080610408906109bf565b9150506103a8565b50336000908152600c60205260408120805460ff1916600117905581900361044b5760405163c2d6646160e01b815260040160405180910390fd5b336001600160a01b03167f9980781248642a39a99200de4bc67620ce62996f86ebdbc8c5d59367445ba8e283836040516104869291906109d8565b60405180910390a2604051600090339083908381818185875af1925050503d80600081146104d0576040519150601f19603f3d011682016040523d82523d6000602084013e6104d5565b606091505b50509050806104f7576040516306cc384560e51b815260040160405180910390fd5b505050565b6001600160a01b0381166000908152600b60209081526040808320805482518185028101850190935280835260609492939192909184015b8282101561057a57838290600052602060002090600202016040518060400160405290816000820154815260200160018201548152505081526020019060010190610534565b505050509050919050565b6040805160e0810182526002548082526003546020830152600454928201929092526005546060820152600654608082015260075460a082015260085460c08201526000914210156105da5760200151919050565b805160608201516105eb904261097c565b106105f95760400151919050565b608081015181516000919061060e904261097c565b61061891906109fa565b9050610622610809565b61062c9082610995565b826020015161063b919061097c565b9250505090565b6040805160e0810182526002548082526003546020830152600454928201929092526005546060820152600654608082015260075460a082015260085460c0820152904210156106a5576040516301dff5d560e71b815260040160405180910390fd5b8060c001518211156106ca57604051636d364ae960e11b815260040160405180910390fd5b60a08101516009546106dc90846109ac565b11156106fb5760405163736f69bd60e01b815260040160405180910390fd5b6000610705610585565b90506107118184610995565b3410156107315760405163074ee1e760e31b815260040160405180910390fd5b8160a001518360095461074491906109ac565b0361074f57600a8190555b826009600082825461076191906109ac565b90915550506001600160a01b0384166000908152600b602090815260408083208151808301909252868252818301858152815460018181018455928652939094209151600290930290910191825591519101556107bf84848361083a565b60408051848152602081018390526001600160a01b038616917fdf8644c0a4c21ed214ce69f395675b3a5fcd1039083daea5058898de40ea3149910160405180910390a250505050565b60065460055460009161081b916109fa565b60045460035461082b919061097c565b61083591906109fa565b905090565b6108448183610995565b6001600160a01b0384166000908152600d60205260408120805490919061086c9084906109ac565b9091555050505050565b80356001600160a01b038116811461088d57600080fd5b919050565b600080604083850312156108a557600080fd5b6108ae83610876565b946020939093013593505050565b6000602082840312156108ce57600080fd5b5035919050565b6000602082840312156108e757600080fd5b6108f082610876565b9392505050565b600081518084526020808501945080840160005b8381101561093257815180518852830151838801526040909601959082019060010161090b565b509495945050505050565b6020815260006108f060208301846108f7565b634e487b7160e01b600052603260045260246000fd5b634e487b7160e01b600052601160045260246000fd5b8181038181111561098f5761098f610966565b92915050565b808202811582820484141761098f5761098f610966565b8082018082111561098f5761098f610966565b6000600182016109d1576109d1610966565b5060010190565b6040815260006109eb60408301856108f7565b90508260208301529392505050565b600082610a1757634e487b7160e01b600052601260045260246000fd5b50049056fea26469706673582212202c99cf432e3e1cbeed81bf2980da94c85b5241cf67ad71f60613a3dc931895ac64736f6c63430008110033",
    "linkReferences": {}
  },
  "methodIdentifiers": {
    "_getBidsFromAddress(address)": "c1a046c0",
    "allowRefunds()": "59c656df",
    "auctionConfig()": "bb406135",
    "balanceOf(address)": "70a08231",
    "bids(address,uint256)": "01495c1c",
    "bidsRefunded(address)": "ad53c3ca",
    "claimRefund()": "b5545a3c",
    "fundsWithdrawn()": "ac307fcf",
    "getCurrentPrice()": "eb91d37e",
    "makeBid(uint256)": "175b2304",
    "totalMinted()": "a2309ff8"
  },
  "id": 20
}